:02371600365427
:023718003587F3
:02371A0023A1E9
:102C43004B65792075700A004B657920646F776E48
:102C53000A007461736B310A00CDA3D6B9D6D02CA8
:102C630020B0B4CFC2B0B4C5A5BFAACABCD1B2CF3D
:102C7300DF0A00D7F3D7AA3A2025640A00D3D2D7B4
:102C8300AA3A2025640A00D6B1D0D03A2025640A96
:012C93000040
:103467004103BA004403BB424800004203BF000ABD
:043477004103B90054
:01000A0022D3
:103366009002D47440F0A37401F0A3120A15000170
:10337600C2009002DB7401F0E4A3F07B017A0279CB
:10338600D47F01120B0E7D017F01122FD553A23F70
:013396002214
:10354B0043BA8012000A1233661237251237011262
:0E355B00371C1236F812372812370FD2AF2263
:1036540012354B7F01121B687F02121B68E4FF02C4
:023664001BF158
:0E36D1007F021236027BFF7A2C79430211CC65
:1033F1009002E7120A15000000007F021235EC7BF3
:10340100FF7A2C794B1211CC9003B9E070047F0143
:0934110080027F009003B9EFF086
:01341A00228F
:103587007BFF7A2C79551211CC7F02123602123446
:0A359700CD7D027F02121C7A80F441
:1023A100E4900320F0A3F0A3F0A374D8F0A374F099
:1023B100F0122917900321EEF0A3EFF09003B9E09A
:1023C10070151230167D647F02121C7A7BFF7A2C05
:1023D100795C1211CC80DA900323E0FEA3E0FF9038
:1023E1000321E0B5060EA3E0B507097D027F0212C5
:1023F1001C7A80BD900321E0FEA3E0FFA3EEF0A3D1
:10240100EFF0C3EE648094805016E4900329F0FF4E
:10241100FE7DF07C411224787BFF7A2C7976803B1B
:10242100D3900322E09400900321E06480948040E3
:10243100199003297401F07F007E007DF07C411228
:1024410024787BFF7A2C798080117F007E007DF0DB
:102451007C411229887BFF7A2C798A900321E0FF45
:10246100A3E0900328CFF0A3EFF01211CC7D027FFF
:0724710002121C7A0223B2E3
:100B0E009002DEEBF0A3EAF0A3E9F09002DDEFF045
:100B1E0064016003020CEC900000F0A3F0A3F0A3BC
:100B2E00F0A3F09002E1F0A3F09002E1E0FEA3E06A
:100B3E00FFC39480EE9400501C74542FF582740100
:100B4E003EF583E4F09002E2E004F070DC9002E106
:100B5E00E004F080D4E49002E1F0A3F09002E1E032
:100B6E00FEA3E0FFC39480EE9400501C74142FF586
:100B7E008274003EF583E4F09002E2E004F070DC53
:100B8E009002E1E004F080D49002DEE0FBA3E0FAF4
:100B9E00A3E0F9120725FFE598543F4FF598EF644F
:100BAE00C06008EF64406003020C979000021209C7
:100BBE00D97F807E8D7D5B7C001208DB9002E31274
:100BCE000A09E4FFFE7D01FC9002E3E0F8A3E0F9E0
:100BDE00A3E0FAA3E0FBC312097B40037FFF229040
:100BEE0002E3E0F8A3E0F9A3E0FAA3E0FBC3E49B81
:100BFE00FFE49AFE740199FDE498FC9002E3120A58
:100C0E00099002DEE0FBA3E0FAA3E0F990000112E6
:100C1E00073EFB64017038C28E538EFE5389BF535C
:100C2E0089CF438E409002E3E0FCA3E0FDA3E0FEFB
:100C3E00A3E0FF780812098C8F8D9002E3A3A3A383
:100C4E00E0F58BC2AB5389BF538FFDD28E8073EB11
:100C5E0064027032538EEF438E01538EF7438E042F
:100C6E009002E3E0FCA3E0FDA3E0FEA3E0FF780822
:100C7E0012098C8FD69002E3A3A3A3E0F5D753AF4E
:100C8E00FB438E10803C7FFF229002DEE0FBA3E050
:100C9E00FAA3E0F9120725FF701390000812073E21
:100CAE00B40105438E20801A538EDF8015EFB48079
:100CBE001190000812073EB401054387808003534C
:100CCE00877F9002DEE0FBA3E0FAA3E0F990000735
:100CDE0012073E7004C29C8002D29C7F00229002BA
:100CEE00DDE064026003020E36900005F0A3F0A36F
:100CFE00F0A3F0A3F09002E1F0A3F09002E1E0FE89
:100D0E00A3E0FFC39480EE9400501C74F42FF58280
:100D1E0074013EF583E4F09002E2E004F070DC90A2
:100D2E0002E1E004F080D4E49002E1F0A3F090023E
:100D3E00E1E0FEA3E0FFC39480EE9400501C749497
:100D4E002FF58274003EF583E4F09002E2E004F0A9
:100D5E0070DC9002E1E004F080D49002DEE0FBA3B0
:100D6E00E0FAA3E0F9120725FF64C06008EF6440C3
:100D7E006003020E14EFB4C005439A808003539AA9
:100D8E007F9000021209D97F807E8D7D5B7C0012E0
:100D9E0008DB9002E3120A09E4FFFE7D01FC9002DB
:100DAE00E3E0F8A3E0F9A3E0FAA3E0FBC312097BAA
:100DBE0040037FFF229002E3E0F8A3E0F9A3E0FAFC
:100DCE00A3E0FBC3E49BFFE49AFE740199FDE49853
:100DDE00FC9002E3120A09538EEF538EF7438E04F2
:100DEE009002E3E0FCA3E0FDA3E0FEA3E0FF7808A1
:100DFE0012098C8FD69002E3A3A3A3E0F5D753AFCD
:100E0E00FB438E1080037FFF229002DEE0FBA3E007
:100E1E00FAA3E0F990000712073EC454F0FFE59ADA
:100E2E0054EF4FF59A7F00229002DDE064036003D9
:100E3E00020FCA90000AF0A3F0A3F0A3F0A3F09063
:100E4E0002E1F0A3F09002E1E0FEA3E0FFC39440C4
:100E5E00EE9400501C74742FF58274023EF583E4F8
:100E6E00F09002E2E004F070DC9002E1E004F08029
:100E7E00D4E49002E1F0A3F09002E1E0FEA3E0FFE3
:100E8E00C39440EE9400501C74142FF58274013EEE
:100E9E00F583E4F09002E2E004F070DC9002E1E011
:100EAE0004F080D49002DEE0FBA3E0FAA3E0F91296
:100EBE000725FF64C06008EF64406003020FA8EFCF
:100ECE00B4C00543AC80800353AC7F90000212097E
:100EDE00D97F807E8D7D5B7C001208DB9002E31251
:100EEE000A09E4FFFE7D01FC9002E3E0F8A3E0F9BD
:100EFE00A3E0FAA3E0FBC312097B40037FFF22901D
:100F0E0002E3E0F8A3E0F9A3E0FAA3E0FBC3E49B5D
:100F1E00FFE49AFE740199FDE498FC9002E3120A34
:100F2E00099002DEE0FBA3E0FAA3E0F990000112C3
:100F3E00073EFB6403702943AC409002E3E0FCA340
:100F4E00E0FDA3E0FEA3E0FF780812098C8FD49099
:100F5E0002E3A3A3A3E0F5D553D1F043D10A803D1C
:100F6E00EB64027032538EEF53ACBF538EF7438E49
:100F7E00049002E3E0FCA3E0FDA3E0FEA3E0FF7813
:100F8E000812098C8FD69002E3A3A3A3E0F5D753E2
:100F9E00AFFB438E1080067FFF227FFF229002DE82
:100FAE00E0FBA3E0FAA3E0F990000712073EC45459
:100FBE00F0FFE5AC54EF4FF5AC7F00229002DDE080
:100FCE006404600302115E90000FF0A3F0A3F0A37F
:100FDE00F0A3F09002E1F0A3F09002E1E0FEA3E0B6
:100FEE00FFC39420EE9400501C74B42FF58274024B
:100FFE003EF583E4F09002E2E004F070DC9002E152
:10100E00E004F080D4E49002E1F0A3F09002E1E07D
:10101E00FEA3E0FFC39420EE9400501C74D42FF571
:10102E008274013EF583E4F09002E2E004F070DC9D
:10103E009002E1E004F080D49002DEE0FBA3E0FA3F
:10104E00A3E0F9120725FF64C06008EF6440600357
:10105E0002113CEFB4C005438480800353847F901B
:10106E0000021209D97F807E8D7D5B7C001208DB29
:10107E009002E3120A09E4FFFE7D01FC9002E3E018
:10108E00F8A3E0F9A3E0FAA3E0FBC312097B400347
:10109E007FFF229002E3E0F8A3E0F9A3E0FAA3E0D9
:1010AE00FBC3E49BFFE49AFE740199FDE498FC9067
:1010BE0002E3120A099002DEE0FBA3E0FAA3E0F9D4
:1010CE0090000112073EFB64047029438440900295
:1010DE00E3E0FCA3E0FDA3E0FEA3E0FF7808120925
:1010EE008C8FD29002E3A3A3A3E0F5D353D10F4389
:1010FE00D1A0803DEB64027032538EEF5384BF5308
:10110E008EF7438E049002E3E0FCA3E0FDA3E0FE25
:10111E00A3E0FF780812098C8FD69002E3A3A3A355
:10112E00E0F5D753AFFB438E1080067FFF227FFF83
:10113E00229002DEE0FBA3E0FAA3E0F99000071292
:10114E00073EC454F0FFE58454EF4FF5847F002230
:02115E007FFF11
:01116000226C
:0F3686008F999000027401F0900002E070FA2218
:10000E00120725FF600C123686740129F9E43AFABC
:03001E0080EE224F
:0F3695008F9B9000077401F0900007E070FA22FD
:10002E00120725FF600C123695740129F9E43AFA8D
:03003E0080EE222F
:0F36A4008FAD90000C7401F090000CE070FA22D2
:10362E00120725FF600C1236A4740129F9E43AFA48
:03363E0080EE22F9
:0F36B3008F859000117401F0900011E070FA22E1
:10364100120725FF600C1236B3740129F9E43AFA26
:0336510080EE22E6
:05002600AE0702368662
:03002300022C9418
:102C9400C0E0C083C082C0D075D000C00730982780
:102CA400C298900003E0C394804002E4F0900003D3
:102CB400E0FF04F074142FF582E43400F583E59901
:102CC400F09000047405F0309907C299900002E472
:0C2CD400F0D007D0D0D082D083D0E03206
:03004300022B4D40
:102B4D00C0E0C083C082C0D075D000C007E59A3008
:102B5D00E028539AFE900008E0C394804002E4F010
:102B6D00900008E0FF04F074942FF582E43400F532
:102B7D0083E59BF09000097405F0E59A30E1085368
:102B8D009AFD900007E4F0D007D0D0D082D083D04A
:022B9D00E03224
:03008B00022B9FA6
:102B9F00C0E0C083C082C0D075D000C007E5AC30A4
:102BAF00E02853ACFE90000DE0C394404002E4F0E7
:102BBF0090000DE0FF04F074142FF582E43401F55A
:102BCF0083E5ADF090000E7405F0E5AC30E10853ED
:102BDF00ACFD90000CE4F0D007D0D0D082D083D0E1
:022BEF00E032D2
:03009300022BF14C
:102BF100C0E0C083C082C0D075D000C007E584307A
:102C0100E0285384FE900012E0C394204002E4F0D7
:102C1100900012E0FF04F074D42FF582E43401F542
:102C210083E585F09000137405F0E58430E10853E5
:102C310084FD900011E4F0D007D0D0D082D083D0B1
:022C4100E0327F
:101CD900EFD3940740037FFF22120725FED3940315
:101CE90040037FFF22EF7041EE700B900001120755
:101CF9003EF452935294120725B4010B900001123D
:101D0900073E4293F45294120725FEB4020A90004A
:101D19000112073E42934294EEB4030D9000011262
:101D2900073EFEF45293EE4294EF640170431207AA
:101D390025FE700B90000112073EF452915292EE6B
:101D4900B4010B90000112073E4291F4529212071E
:101D590025B4020A90000112073E429142921207ED
:101D690025B4030D90000112073EFEF45291EE4294
:101D790092EF64027043120725FE700B9000011266
:101D8900073EF452955296EEB4010B9000011207EA
:101D99003E4295F45296120725B4020A90000112A8
:101DA900073E42954296120725B4030D9000011291
:101DB900073EFEF45295EE4296EF64037043120714
:101DC90025FE700B90000112073EF452B152B2EE9B
:101DD900B4010B90000112073E42B1F452B212074E
:101DE90025B4020A90000112073E42B142B212071D
:101DF90025B4030D90000112073EFEF452B1EE42E4
:101E0900B2EF64047043120725FE700B90000112B3
:101E1900073EF452B352B4EEB4010B90000112071D
:101E29003E42B3F452B4120725B4020A90000112DB
:101E3900073E42B342B4120725B4030D90000112C4
:101E4900073EFEF452B3EE42B4EF64057043120745
:101E590025FE700B90000112073EF452C952CAEEDA
:101E6900B4010B90000112073E42C9F452CA12078D
:101E790025B4020A90000112073E42C942CA12075C
:101E890025B4030D90000112073EFEF452C9EE423B
:101E9900CAEF64067043120725FE700B9000011209
:101EA900073EF452CB52CCEEB4010B90000112075D
:101EB9003E42CBF452CC120725B4020A900001121B
:101EC900073E42CB42CC120725B4030D9000011204
:101ED900073EFEF452CBEE42CCEF64077043120783
:101EE90025FF700B90000112073EF452E152E2EF18
:101EF900B4010B90000112073E42E1F452E21207CD
:101F090025B4020A90000112073E42E142E212079B
:101F190025B4030D90000112073EFFF452E1EF4290
:041F2900E27F002231
:0F3666007D607C09ED1D70011C144C70F7DFF1C5
:013675002232
:102E9000EFD3940140037FFF22EDD3940340037FDF
:102EA000FF22EF7004C2A98002D2A9ED700553B7CA
:102EB000FDC2B9EDB4010553B7FDD2B9EDB40205B9
:102EC00043B702C2B9EDB4030543B702D2B97F00DC
:012ED00022DF
:102ED100EFD3940140037FFF22EDD3940340037F9E
:102EE100FF22EF7004C2AB8002D2ABED700553B785
:102EF100F7C2BBEDB4010553B7F7D2BBEDB4020580
:102F010043B708C2BBEDB4030543B708D2BB7F008A
:012F1100229D
:10348900EFD3940140037FFF22EDD3940340037FE0
:10349900FF22EF25E025E0FFE5AF54FB4FF5AFE450
:0234A900FF2200
:1034AB00EFD3940140037FFF22EDD3940340037FBE
:1034BB00FF22EFC43354E0FFE5AF54DF4FF5AFE429
:0234CB00FF22DE
:10344400EFD3940140037FFF22EDD3940340037F25
:10345400FF22EFC4333354C0FFE5AF54BF4FF5AF81
:03346400E4FF2260
:102F1200EFD3940140037FFF22EDD3940340037F5C
:102F2200FF22EF7004C2A88002D2A8ED700553B749
:102F3200FEC2B8EDB4010553B7FED2B8EDB4020536
:102F420043B701C2B8EDB4030543B701D2B87F005D
:012F5200225C
:102F5300EFD3940140037FFF22EDD3940340037F1B
:102F6300FF22EF7004C2AA8002D2AAED700553B704
:102F7300FBC2BAEDB4010553B7FBD2BAEDB40205F7
:102F830043B704C2BAEDB4030543B704D2BA7F0012
:012F9300221B
:1035D400EFD3940140037FFF22EFC454F0FFE58F43
:0835E40054EF4FF58FE4FF22C4
:1035BB00EFD3940140037FFF22EFC43354E0FFE5C8
:0935CB008F54DF4FF58FE4FF225D
:1035A100EFD3940140037FFF22EFC4333354C0FFB4
:0A35B100E58F54BF4FF58FE4FF22B1
:102F9400EFD3940140037FFF22EDD3940340037FDA
:102FA400FF22EF7004C2AD8002D2ADED700553B7BD
:102FB400DFC2BDEDB4010553B7DFD2BDEDB40205E8
:102FC40043B720C2BDEDB4030543B720D2BD7F0093
:012FD40022DA
:102CE000EDD3940340037FFF22EF30E10543E6205C
:102CF000800353E6DFEF30E00543E610800353E640
:102D0000EFED700653B6DF53B5DFEDB4010653B6F1
:102D1000DF43B520EDB4020643B62053B5DFEDB472
:0B2D2000030643B62043B5207F0022CD
:1029F200EFD3940140037FFF22EBD3940340037F84
:102A0200FF22EFB40112ED90FE817006E0547FF0D8
:102A12008011E04480F0800BEF700890FE83E05458
:102A2200874DF0EB700653B6DF53B5DFEBB401060A
:102A320053B6DF43B520EBB4020643B62053B5DFED
:0D2A4200EBB4030643B62043B5207F00220D
:102FD500EFD3940140037FFF22EDD3940340037F99
:102FE500FF22EF7004C2AC8002D2ACED700553B77E
:102FF500EFC2BCEDB4010553B7EFD2BCEDB4020589
:1030050043B710C2BCEDB4030543B710D2BC7F0073
:013015002298
:102E4D00EFD3940140037FFF22EDD3940340037F22
:102E5D00FF22E5AF54FE4FF5AFED700653B6FE53AE
:102E6D00B5FEEDB4010653B6FE43B501EDB4020651
:102E7D0043B60153B5FEEDB4030643B60143B501A8
:032E8D007F0022A1
:102D2B00EFD3940140037FFF22EDD3940340037F45
:102D3B00FF22EF33333354F8FFE5AF54F74FF5AFC2
:102D4B00ED700653EEFE53DFFEEDB4010653EEFEBF
:102D5B0043DF01EDB4020643EE0153DFFEEDB40396
:0A2D6B000643EE0143DF017F002262
:102DBE00EFD3940140037FFF22EDD3940340037FB2
:102DCE00FF22EFC454F0FFE5AF54EF4FF5AFED70B7
:102DDE000653EEFD53DFFDEDB4010653EEFD43DF6A
:102DEE0002EDB4020643EE0253DFFDEDB4030643DB
:082DFE00EE0243DF027F002218
:102E0600EFD3940140037FFF22EDD3940340037F69
:102E1600FF22EF25E0FFE5AF54FD4FF5AFED70065D
:102E260053B6FD53B5FDEDB4010653B6FD43B502E9
:102E3600EDB4020643B60253B5FDEDB4030643B640
:072E46000243B5027F0022E8
:1027A800EFD3948140037FFF22EBD3940340037F50
:1027B800FF22EF247F603204705D90FEC4EDF0EBE1
:1027C800700653B6FB53B5FBEBB4010653B6FB4397
:1027D800B504EBB4020643B60453B5FBEB640370CF
:1027E8003B43B60443B504803390FEE4EDF0EB7050
:1027F8000653B6F753B5F7EBB4010653B6F743B52E
:1028080008EBB4020643B60853B5F7EBB4030D431F
:0F281800B60843B508800590FEE4EDF07F00227E
:10305400EDD394035029ED700653EEFB53DFFBEDE3
:10306400B4010653EEFB43DF04EDB4020643EE0461
:1030740053DFFBEDB4030B43EE0443DF0480037F13
:0A308400FF2290FE62EFF07F0022B1
:10308E0090FA10E054F0F0EDD39403500BE0FEED07
:10309E0025E025E0FDEE4DF0EBD39403500690FABB
:1030AE0010E04BF0EF90FA10B40106E04480F0808F
:0830BE0004E0547FF07F0022C2
:1030C60090FA00E054F0F0EDD39403500BE0FEEDDF
:1030D60025E025E0FDEE4DF0EBD39403500690FA83
:1030E60000E04BF0EF90FA00B40106E04480F08077
:0830F60004E0547FF07F00228A
:1030FE0090FA20E054F0F0EDD39403500BE0FEED87
:10310E0025E025E0FDEE4DF0EBD39403500690FA4A
:10311E0020E04BF0EF90FA20B40106E04480F080FE
:08312E0004E0547FF07F002251
:1031360090FA30E054F0F0EDD39403500BE0FEED3E
:1031460025E025E0FDEE4DF0EBD39403500690FA12
:1031560030E04BF0EF90FA30B40106E04480F080A6
:0831660004E0547FF07F002219
:10316E0090FA38E054F0F0EDD39403500BE0FEEDFE
:10317E0025E025E0FDEE4DF0EBD39403500690FADA
:10318E0038E04BF0EF90FA38B40106E04480F0805E
:08319E0004E0547FF07F0022E1
:1031A60090FA40E054F0F0EDD39403500BE0FEEDBE
:1031B60025E025E0FDEE4DF0EBD39403500690FAA2
:1031C60040E04BF0EF90FA40B40106E04480F08016
:0831D60004E0547FF07F0022A9
:1031DE0090FA48E054F0F0EDD39403500BE0FEED7E
:1031EE0025E025E0FDEE4DF0EBD39403500690FA6A
:1031FE0048E04BF0EF90FA48B40106E04480F080CE
:08320E0004E0547FF07F002270
:1032160090FA50E054F0F0EDD39403500BE0FEED3D
:1032260025E025E0FDEE4DF0EBD39403500690FA31
:1032360050E04BF0EF90FA50B40106E04480F08085
:0832460004E0547FF07F002238
:10324E0090FA58E054F0F0EDD39403500BE0FEEDFD
:10325E0025E025E0FDEE4DF0EBD39403500690FAF9
:10326E0058E04BF0EF90FA58B40106E04480F0803D
:08327E0004E0547FF07F002200
:1032860090FA60E054F0F0EDD39403500BE0FEEDBD
:1032960025E025E0FDEE4DF0EBD39403500690FAC1
:1032A60060E04BF0EF90FA60B40106E04480F080F5
:0832B60004E0547FF07F0022C8
:1032BE0090FA68E054F0F0EDD39403500BE0FEED7D
:1032CE0025E025E0FDEE4DF0EBD39403500690FA89
:1032DE0068E04BF0EF90FA68B40106E04480F080AD
:0832EE0004E0547FF07F002290
:1032F60090FA70E054F0F0EDD39403500BE0FEED3D
:1033060025E025E0FDEE4DF0EBD39403500690FA50
:1033160070E04BF0EF90FA70B40106E04480F08064
:0833260004E0547FF07F002257
:1033C60090FE50E054CFF0EDD39403500AE0FEEDAA
:1033D600C454F0FDEE4DF0EF90FE50B40106E0440B
:0B33E60080F08004E0547FF07F0022A4
:102A4F0090000112073EFFE5DE54F04FF5DE9000D7
:102A5F000212073EC43354E0FFE5DE54DF4FF5DECC
:102A6F00120725FFD3941F502B90000312073EFE31
:102A7F00D39401501F90000412073EFDD3940350CE
:102A8F0013EDC43354E0FDEEC433333354804D4F54
:052A9F0090FEA8F022EA
:0C36EC00EFB4010443BC802253BC7F22D9
:10282700EFD3940F4002806BE4F5BDF5BEE5BC54D1
:10283700F044404FF5BC000000000000000000001D
:10284700E4FDE5BC30E54753BCDFE5DEAFBD30E571
:102857000DEFFEACBEECFBEBFF9003CF80229003A5
:10286700CFE4F0A3EFF0E5BEC4540FFBE0C4F85487
:102877000FC868FF9003CFE0C454F048FEEF4BFF4A
:10288700EEF0A3EFF09003CFE0FEA3E0FF220DED03
:07289700B4FAAF7E107F00D0
:01289E002217
:03002B0002008E42
:04008E0053BCDF324E
:1015E400AD07ED6401707A90FECCE054FEF0E05457
:1015F400FBF090FEC8E054FCF0120725FF90FEC8F3
:10160400E0548F4FF090000612073EFF90FECC305E
:10161400E00DE04401F090FEB1E04401F0800BE005
:1016240054FEF090FEB1E054FEF0EF90FECC30E1B9
:101634000DE04404F090FEB1E04402F0800BE0546D
:10164400FBF090FEB1E054FDF0900003120867E552
:10165400F090FED5F090000312086790FED60219B0
:101664009EED6402707A90FECCE054EFF0E054BF3B
:10167400F090FEC9E054FCF0120725FF90FEC9E08B
:10168400548F4FF090000612073EFF90FECC30E2DC
:101694000DE04410F090FEB1E04404F0800BE054FF
:1016A400EFF090FEB1E054FBF0EF90FECC30E30D90
:1016B400E04440F090FEB1E04408F0800BE054BFF9
:1016C400F090FEB1E054F7F0900003120867E5F0E3
:1016D40090FED7F090000312086790FED802199E7E
:1016E400ED6403707A90FECDE054FEF0E054FBF01C
:1016F40090FECAE054FCF0120725FF90FECAE054A5
:101704008F4FF090000612073EFF90FECD30E40D9F
:10171400E04401F090FEB1E04410F0800BE054FE90
:10172400F090FEB1E054EFF0EF90FECD30E50DE027
:101734004404F090FEB1E04420F0800BE054FBF050
:1017440090FEB1E054DFF0900003120867E5F090DA
:10175400FED9F090000312086790FEDA02199EED9C
:101764006404707A90FECDE054EFF0E054BFF09042
:10177400FECBE054FCF0120725FF90FECBE0548F23
:101784004FF090000612073EFF90FECD30E60DE0CC
:101794004410F090FEB1E04440F0800BE054EFF0D0
:1017A40090FEB1E054BFF0EF90FECD30E70DE04481
:1017B40040F090FEB1E04480F0800BE054BFF09024
:1017C400FEB1E0547FF0900003120867E5F090FE4C
:1017D400DBF090000312086790FEDC02199EED64B2
:1017E40080704F90000512073E90FEDEF0900001DD
:1017F400120867E5F090FED2F0900001120867909D
:10180400FED3F090000812073E90FEDDB40106E01E
:101814004480F08004E0547FF090000712073E906B
:10182400FEC0B40106E04401F08004E054FEF07F01
:101834000022ED6405705690FEECE054FEF090FE3C
:10184400E8E054FCF0120725FF90FEE8E0548F4FC7
:10185400F090000612073E90FEEC30E00DE04401EB
:10186400F090FEB5E04401F0800BE054FEF090FEF1
:10187400B5E054FEF0900003120867E5F090FEF521
:10188400F090000312086790FEF602199EED6406BC
:10189400705690FEECE054EFF090FEE9E054FCF05A
:1018A400120725FF90FEE9E0548F4FF090000612D6
:1018B400073E90FEEC30E20DE04410F090FEB5E0FF
:1018C4004404F0800BE054EFF090FEB5E054FBF0DC
:1018D400900003120867E5F090FEF7F09000031201
:1018E400086790FEF802199EED6407705590FEEDAE
:1018F400E054FEF090FEEAE054FCF0120725FF905D
:10190400FEEAE0548F4FF090000612073E90FEED81
:1019140030E40DE04401F090FEB5E04410F0800B9B
:10192400E054FEF090FEB5E054EFF090000312088E
:1019340067E5F090FEF9F090000312086790FEFA54
:101944008058ED6408705790FEEDE054EFF090FE7F
:10195400EBE054FCF0120725FF90FEEBE0548F4FB0
:10196400F090000612073E90FEED30E60DE04410C4
:10197400F090FEB5E04440F0800BE054EFF090FEB0
:10198400B5E054BFF0900003120867E5F090FEFB49
:10199400F090000312086790FEFCF07F0022ED64D3
:1019A40081704C90000512073E90FEFEF0900001FD
:1019B400120867FDACF0EC90FEF2F0AF05A3EFF077
:1019C40090000812073E90FEFDB40106E04480F04A
:1019D4008004E0547FF090000712073E90FEE0B4CC
:1019E4000106E04401F08004E054FEF07F00227F11
:0219F400FF22D0
:10216C00EF2480700302222714700302226C248057
:10217C00B4080040030222B890219275F003A4C564
:10218C008325F0C583730221AA0221B70221C7025D
:10219C0021D70221E70221F7022207022217120897
:1021AC003CFDACF0EC90FED50222B290000212087D
:1021BC0067FDACF0EC90FED70222B290000412083E
:1021CC0067FDACF0EC90FED90222B290000612082A
:1021DC0067FDACF0EC90FEDB0222B2900008120816
:1021EC0067FDACF0EC90FEF50222B290000A1208EA
:1021FC0067FDACF0EC90FEF70222B290000C1208D6
:10220C0067FDACF0EC90FEF90222B290000E1208C1
:10221C0067FDACF0EC90FEFB0222B212083CFDAC68
:10222C00F0EC90FED5F0AF05A3EFF0900002120891
:10223C0067FDACF0EC90FED7F0AF05A3EFF090008B
:10224C0004120867FDACF0EC90FED9F0AF05A3EFDB
:10225C00F0900006120867FDACF0EC90FEDB8046B7
:10226C00900008120867FDACF0EC90FEF5F0AF059D
:10227C00A3EFF090000A120867FDACF0EC90FEF7AB
:10228C00F0AF05A3EFF090000C120867FDACF0EC7A
:10229C0090FEF9F0AF05A3EFF090000E120867FD69
:0D22AC00ACF0EC90FEFBF0AF05A3EFF022CC
:03000B000219FBDC
:1019F600C2AF80FE321219FA85D00B75D008AAE064
:101A0600C28CE58A24F7F58AE58C34D8F58CD28C1D
:101A1600EC2424F8E6BC020274FFC39581B41400DA
:101A260040CE7903781916E608700BC2AFE630E1AE
:101A3600034418F6D2AF08D9EDEA8BD03012012252
:101A4600D50DFCC0E0C0D0C0F0C083C082C000C0CD
:101A560001C002C003C004C005C006C007E50C23D0
:101A6600241AF87440C2AF46F6D2AFD212E50CFF84
:101A760023241AF80F0808BF03047F00781AE630FB
:101A8600E4F200E50CC39F5020050C7423250CF8E6
:101A9600E6FDA68108E6AE0CBE020274FFCDF8E8AC
:101AA6006D60E008E6C0E080F6E50CD39F4027E5D0
:101AB6000C2424F8E6AE0CBE020274FFFD18E6CD37
:101AC600F8E5816D6006D0E0F61880F5E50C242374
:101AD600C8F6150C80D3750D05E50C23241AF87F7E
:101AE60004C2AFE610E61E30E00310E20C7F0030C1
:051AF600E10730E304EC
:101AFB007F0854F4547CC6D2AF54804207C21222E2
:101B0B00F6D2AFD007D006D005D004D003D002D088
:101B1B0001D000D082D083D0F0D0D0D0E0C212223E
:101B2B007823A68174026006FF0876FFDFFB7F0334
:101B3B00E47819F608F608DFFA781A76309037163B
:101B4B00740193C0E0E493C0E0750D054389017502
:0D1B5B008AF0758CD8D28CD2AFD2A92202AC
:10350D00B5C8B44543484FC0ADB8DFB3ACCAB13A46
:0F351D002025642075732C20CDCBB3F6210A0036
:0F36C20053B37F43B48043B10853B2F7C2C7225A
:033722000236C2AA
:0600030075184ED518FD32
:0100090022D4
:0B22B9009003C1EBF0A3EAF0A3E9F0F2
:1022C400E4A3F0A3F0D2C7120003120003C2C72094
:1022D400B320D39003C5E0942C9003C4E094015040
:1022E40011120003A3E004F070E59003C4E004F0CD
:1022F40080DD9003C4E0FEA3E0FFC3942CEE9401C0
:10230400401B7BFF7A35790D7C007D0A12079F9074
:102314000328EEF0A3EFF01211CC7FFF22E4900328
:10232400C4F0A3F030B3131200039003C5E004F02B
:1023340070F29003C4E004F080EA9003C4E0FCA3CC
:10234400E0FDE41203C37B7B7A14792E783E1201FC
:102354008E9003C1E0FBA3E0FAA3E0F91209BF9059
:1023640003C1E0FBA3E0FAA3E0F912099FE4FBFA3E
:10237400F97840120334600540037F01229003C1C1
:10238400E0FBA3E0FAA3E0F912099FE4FBFA79C8A1
:0C239400784312033450037F02227F00C4
:0123A000221A
:0D36DF0053937F43948053C9FB43CA0422D8
:033725000236DF8A
:1035EC00EF14600A14600A2402700AD28722D2CA2D
:0635FC0022D287D2CA2290
:10360200EF14600A14600A2402700AC28722C2CA36
:0636120022C287C2CA2299
:04347B004103D50133
:073701005393DF5394DF2214
:1034CD00A285E433FF9003D5E06F601330850512BC
:0F34DD0036D180031233F1A285E4339003D5F08A
:0134EC0022BD
:073708004391085392F722E0
:10341B009002D4741FF0E49002D7F0A304F0E49070
:10342B0002D5F0A304F0FB7A0279D4122A4F7F0164
:09343B001236ECE4FDFF022F94AF
:06371C0012370802341B05
:102AA400E4FFFE9003CB120A15000000007B007ABD
:102AB40000790078007F03122827AD07AC06E412E2
:102AC40003C3E4FBFA7920784012018EE4FBFA791F
:102AD4008078451202979003CB120A097F337E3324
:102AE4007DC37C409003CBE0F8A3E0F9A3E0FAA314
:052AF400E0FB02018E71
:10332E00020B024B029302BA0310037003DC041665
:10333E00049605260574062006E007B8082C092C0D
:10334E000A4C0AE80C400DC00F7010581258149811
:08335E0015D018801B801EE051
:04347F004103D61C13
:103618009002D57410F09002D47403F07B017A0202
:0636280079D4FF021CD959
:0936F80043BA80123618C2B42254
:10272100AB07AA06E4F9F8FF7E367D6E7C01120044
:10273100469003A5EEF0A3EFF0A37460F0AD07ACF3
:1027410006E41203C3E4FBFAF9783F12018E120387
:10275100FC9003AAEEF0A3EFF09003AD7440F07B80
:10276100017A0379A77F081215E49003A6E024FFFC
:10277100FE9003A5E034FF9003A8F0A3CEF0E4900F
:1027810003ACF09003AF04F09003AEF0FB7A037951
:10279100A77F811215E490FEB6E0543F4440F0E477
:0727A100FBFD7F810227A868
:102D75009003D1EEF0A3EFF04E7003023676900388
:102D8500D6E0FF7E00D39003D2E09F9003D1E09E72
:102D95004005EEF0A3EFF09003D2E025E0FF9003AD
:102DA500D1E033FE742C2FF58274333EF583E49322
:092DB500FE740193FF1227212294
:0E2AF9009003C6EFF0A3ECF0A3EDF0A3EBF01A
:102B0700A37408F09003C6E0FF14F0EF603590035C
:102B1700CAE0FF7E00122D759003C7E0FEA3E0FF19
:102B27007C007D051207B1AD077F02121C7A1236B1
:102B3700767D0A7F02121C7A9003C9E0FFA3E02F7B
:062B4700F080C1023676A9
:10367600E49003B6F07B017A0379B07F080215E483
:1034ED0000000000000000000000000000000000CF
:1034FD0000000000000000000000000000000000BF
:10352C005391CF43923053913F4392C05395FC43F8
:0F353C0096035395F343960C53900F53A0F02230
:0B356900E0FCA3E0FDA3E0FEA3E0FFF8
:10357400E4FBFAF97840120297E4FBFA79487842BE
:0335840002009DA5
:101F2D0090033A123569900353120A0990033E1239
:101F3D003569900357120A099003421235699003CF
:101F4D005B120A0990034612356990035F120A0964
:101F5D00E4FFFEFDFC90033AE0F8A3E0F9A3E0FAFC
:101F6D00A3E0FB12033460047F0180027F00900325
:101F7D0063EFF0E4FFFEFDFC90033EE0F8A3E0F913
:101F8D00A3E0FAA3E0FB12033460047F0180027F1B
:101F9D0000900364EFF0E4FFFEFDFC900342E0F8D7
:101FAD00A3E0F9A3E0FAA3E0FB12033460047F0180
:101FBD0080027F00900365EFF0E4FFFEFDFC9003CF
:101FCD0046E0F8A3E0F9A3E0FAA3E0FB12033460C6
:101FDD00047F0180027F00900366EFF090034A7446
:101FED0060F07F007E807DBB7C4690035BE0F8A3B4
:101FFD00E0F9A3E0FAA3E0FB12018EE4FBFA79C845
:10200D0078421202971203FC90034DEEF0A3EFF00D
:10201D00900365E060047F0380027F00900350EF22
:10202D00F07B017A03794A7F011215E490034A741B
:10203D0070F07F007E807DBB7C4690035FE0F8A34F
:10204D00E0F9A3E0FAA3E0FB12018EE4FBFA79C8F4
:10205D0078421202971203FC90034DEEF0A3EFF0BD
:10206D00900366E060047F0C80027F00900350EFC8
:10207D00F07B017A03794A7F021215E490034A74CA
:10208D0060F07F007E807DBB7C46900353E0F8A31B
:10209D00E0F9A3E0FAA3E0FB12018EE4FBFA79C8A4
:1020AD0078421202971203FC90034DEEF0A3EFF06D
:1020BD00900363E060047F3080027F00900350EF57
:1020CD00F07B017A03794A7F031215E490034A7479
:1020DD0070F07F007E807DBB7C46900357E0F8A3B7
:1020ED00E0F9A3E0FAA3E0FB12018EE4FBFA79C854
:1020FD0078421202971203FC90034DEEF0A3EFF01D
:10210D00900364E060047FC080027F00900350EF75
:10211D00F07B017A03794A7F041215E490034B7426
:10212D005DF0A374BFF090034F740AF090035274E6
:10213D0001F0900351F0FB7A03794A7F801215E488
:10214D0090FEB2E054FC4401F0E054F34404F0E09E
:0F215D0054CFF0E0543FF0E4FBFD7F800227A851
:0337280002352C3B
:06298800900325120A096C
:10298E00900325E0FCA3E0FDA3E0FEA3E0FFA3126D
:10299E000A09900325E0FCA3E0FDA3E0FEA3E0FFFF
:1029AE0090032D120A09900325E0FCA3E0FDA3E09D
:1029BE00FEA3E0FF900331120A09900325E0FCA369
:1029CE00E0FDA3E0FEA3E0FF900335120A09783A7A
:1029DE007C037D017B017A0379297E007F1012062C
:0429EE00FF021F2D98
:06289F00900391120A09EA
:1028A500900391E0FCA3E0FDA3E0FEA3E0FF12038B
:1028B500AD900395120A09900391E0FCA3E0FDA3F6
:1028C500E0FEA3E0FF1203AD900399120A099003FD
:1028D50091E0FCA3E0FDA3E0FEA3E0FF1203AD90B1
:1028E500039D120A09900391E0FCA3E0FDA3E0FE1D
:1028F500A3E0FF1203AD9003A1120A09783A7C0305
:102905007D017B017A0379957E007F101206FF0217
:022915001F2D74
:0625F900900367120A09BD
:1025FF00786C7C037D017BFF7A3479ED7E007F1050
:10260F001206FF90036BE0FF64016003EF702890E8
:10261F000367E0FCA3E0FDA3E0FEA3E0FF900370DF
:10262F00120A09900367E0FCA3E0FDA3E0FEA3E01C
:10263F00FF900374120A0990036BE0FFF46003EF3D
:10264F00702E900367E0FCA3E0FDA3E0FEA3E0FF84
:10265F001203AD90036C120A09900367E0FCA3E02C
:10266F00FDA3E0FEA3E0FF1203AD900378120A0969
:10267F00783A7C037D017B017A03796C7E007F10B1
:06268F001206FF021F2DE0
:06253F0090037C120A0962
:1025450078817C037D017BFF7A3479FD7E007F10E5
:102555001206FF900380E0FBB4012790037CE0FCAA
:10256500A3E0FDA3E0FEA3E0FF900381120A09901A
:10257500037CE0FCA3E0FDA3E0FEA3E0FF90038D58
:102585008059EB90037CB4FF028028E0FCA3E0FDBA
:10259500A3E0FEA3E0FF900381120A0990037CE00B
:1025A500FCA3E0FDA3E0FEA3E0FF90038D120A0962
:1025B50090037CE0FCA3E0FDA3E0FEA3E0FF120393
:1025C500AD900385120A0990037CE0FCA3E0FDA30E
:1025D500E0FEA3E0FF1203AD900389120A09783AE1
:1025E5007C037D017B017A0379817E007F101206D1
:0425F500FF021F2D95
:06247800900325120A0981
:10247E00900329E0900325604FE0FCA3E0FDA3E06C
:10248E00FEA3E0FF90032A120A09900325E0FCA3A5
:10249E00E0FDA3E0FEA3E0FF1203AD90032E120AAF
:1024AE0009900325E0FCA3E0FDA3E0FEA3E0FF906E
:1024BE000332120A09900325E0FCA3E0FDA3E0FE1F
:1024CE00A3E0FF1203AD804DE0FCA3E0FDA3E0FE10
:1024DE00A3E0FF1203AD90032A120A09900325E030
:1024EE00FCA3E0FDA3E0FEA3E0FF90032E120A0979
:1024FE00900325E0FCA3E0FDA3E0FEA3E0FF1203A2
:10250E00AD900332120A09900325E0FCA3E0FDA36F
:10251E00E0FEA3E0FF900336120A09783A7C037DB1
:10252E00017B017A03792A7E007F101206FF021FBB
:01253E002D6F
:10301600900325120A1500000000900329120A15D4
:103026000000000090032D120A1500000000900316
:1030360031120A1500000000783A7C037D017B01FD
:0E3046007A0379257E007F101206FF021F2DEF
:053483004203D300002C
:07370F005393E05394E02204
:10339700A280E43312076BA281E433900001120785
:1033A7007DA282E43390000212077DA283E433906A
:0F33B700000312077DA284E43390000402077D17
:10291700E4FFFEFDFC900325F0A3F030800C24C0FB
:10292700FFEE34FFFE0DBD00010C30810D74E02F6A
:10293700FF74FF3EFE0DBD00010C3082050DBD008A
:10294700010C30830C74202FFFE43EFE0DBD000107
:102957000C30840C74402FFFE43EFE0DBD00010CCB
:10296700ED4C70099003D3E0FEA3E0FF22120806A6
:10297700900325EEF0A3EFF09003D3EEF0A3EFF072
:01298700222D
:101B6800EFD3940240037FFF22741A2F2FF8E62048
:101B7800E5F4C2AFE64430F6D2AFAE0CEEC39F50E8
:101B8800210E74232EF8E6F908E618BE020274FF47
:101B9800FDED69600909E71919F7090980F31616B7
:101BA80080DAEED39F400405810581EED39F402261
:101BB80074232EF808E6F9EEB50C02A9811806067A
:101BC800E6FDED6960091919E70909F71980F31E9F
:101BD80080D9EF2423F8E604F8EF2F049037169302
:091BE800F608EF2F93F67F0022AE
:101BF100EFD3940240037FFF22EF23241AF8E6304B
:101C0100E5F4C2AFE6548CF6D2AFE50CB5070A7421
:101C1100232FF8E6F581021A71502E74242FF8E66D
:101C2100BF020274FFFD18E6F974232FF8FBE6FCEE
:101C3100E96C6008A805E7F61D1980F4A803A6055C
:101C41001FE50CB507E37F002274242FF8E6FD1889
:101C510086010F74232FF8A601088604E50CB50749
:101C610002AC81ED6C60080D09A805E6F780F4E58A
:091C71000CB507DE89817F002219
:101C7A008FF0E4FFFEE50C232419F8C2A930F70D12
:101C8A007F08E6600B2DF660325030800730F1068F
:101C9A00EDF660277E020830F010C2AFE610E725A5
:101CAA000E30E20CD2AF7F048014C2AFE610E71503
:101CBA0054EC4EF6D2AFD2A9021A717F0808EF444B
:0F1CCA0083F4C2AF56C6D2AFD2A954804FFF22C7
:10009600020468E86480F8E933E83360110460F02C
:1000A600ED33EC337009E8FCE9FDEAFEEBFF2204D0
:1000B60060DED3EB9FEA9EE99DE8C2E78CF0C2F7CB
:1000C60095F0400CE8CCF8E9CDF9EACEFAEBCFFB97
:1000D60012043385D0F05804700320D5B3E80470B9
:1000E600075002B2D502047292D5EC0460F7E4CC54
:1000F600C0E0C398F8603B94186008400DD0E0FB60
:1001060002044AE4FBFAC9FC8028E830E406E4C9A4
:10011600FBE4CAFCE830E305E4C9CACBFCE85407B3
:100126006010F8C3E913F9EA13FAEB13FBEC13FCBE
:10013600D8F130F52FC3E49CFCEF9BFFEE9AFEED61
:1001460099FDD0E0FBEF4E4D4C701222DB0302040A
:100156006FEC2CFCEF33FFEE33FEED33FDED30E7B5
:10016600EB02044AEF2BFFEE3AFEED39FDD0E0FB41
:1001760050130BBB0003020472ED13FDEE13FEEFEA
:0801860013FFEC13FC02044A14
:10018E00EC4D6011E8497017ED33EC3304600DE46B
:10019E00FCFFFEFD22E933E8330470F80204681216
:1001AE00043358046009E4CC248150062850090217
:1001BE00047228400302046FC0E0EB4A7044B98019
:1001CE0006D0E0FB02045EEF4E701CBD8008EBFF14
:1001DE00EAFEE9FD80EBE98DF0A4FEE5F002027780
:1001EE00E9CDF9EAFEEBFFEF89F0A4FCE5F0CE894C
:1001FE00F0A42EFFE435F0CD89F0A42DFEE435F009
:10020E008067EF4E7005BD80D780C3EF8BF0A4AC36
:10021E00F0EE8BF0A42CFCE435F0F8EF8AF0A42C71
:10022E00E5F038FCE433CB8DF0A42CFCE5F03BF884
:10023E00EE8AF0A42CFCE5F038F8E433CF89F0A474
:10024E002CFCE5F038CF3400CE89F0A42FFFE5F07A
:10025E003EFEE433C98DF0A42EFEE5F039CD8AF0D2
:10026E00A42FFFE5F03EFEE43DFD33D0E0FB50074A
:10027E000BBB000F020472EC2CFCEF33FFEE33FECF
:06028E00ED33FD02044AFD
:10029400020472EC5D046005E8590470030204680A
:1002A400120433580460F6EC4860F2EC7004FDFE6E
:1002B400FF22C860DB2481C85009C398600250063D
:1002C40002046F9850CAF582E9294B4A7005AB8243
:1002D40002045E75F0007C1A7880C3EF9BEE9AED01
:1002E40099400DC3EF9BFFEE9AFEED99FDE842F0B5
:1002F400DC23ACF0D0E0FFD0E0FED0E0FDAB822008
:10030400E7101BEB60BAEC2CFCEF33FFEE33FEED91
:1003140033FD02044AE803F830E705C0F075F00045
:10032400EF2FFFEE33FEED33FD40B830E7C280AA75
:1003340074F8CC6480CCC86480C8F58204604FC370
:10034400EB9FF5F0EA9E42F0E99D42F0E89C45F00F
:10035400603C501DE5825FFFE582D313CB5BCBF499
:100364002B5582FB50280ABA002409B900200880C2
:100374001DE5825BFBE582D313CF5FCFF4C3132F5C
:100384005582FF50090EBE00050DBD00010CC3EBE4
:100394009FF5F0EA9E42F0E99D42F0E89C45F0604A
:0903A40007CC4820E701B3EC226C
:1003AD00ED33EC33600A047003BD8004ECB2E7FC5E
:0103BD00221D
:1003BE0075F020800E75F010800575F0087D007EBA
:1003CE00007F003392D530D50312096DEC33401007
:1003DE00EF33FFEE33FEED33FDEC33FCD5F0ED22C3
:0E03EE00E5F0247EA2D513CC92E7CDCEFF22FF
:1003FC00EDD2E7CD33EC3392D524814006E4FFFEF9
:10040C00FDFC22FCE4CFCECDCC24E0501174FF8057
:10041C00EDC3CC13CCCD13CDCE13CECF13CF0470F4
:07042C00F030D5DE02096D7E
:10116100E5132428F582E43403F583E00513229086
:101171000325301003900328E475F001120A46029A
:1011810007252009E97F2ED2098018EF540F2490FA
:10119100D43440D4FF300D0BEF24BFB41A005003F8
:1011A1002461FFE514600215140517E517700205A7
:1011B1001630100E900325E475F001120A46EF0275
:1011C100076B0200267403D2108003E4C210F513EA
:1011D100900325120A5DE4F514F516F517E5146080
:1011E100077F201211A480F57515FFC20AC209C23A
:1011F1000BC20CC20EC20FC211121170FF700D3062
:1012010010057F001211B5AF17AE1622B4255FC2CB
:10121100D5C20D121170FF24D0B40A00501A75F016
:101221000A781430D50508B6FF0106C6A426F620B3
:10123100D5047002D20C80D924CFB41A00EF500427
:10124100C2E5D20D0214A7D20A80C6D20980C0D24B
:101251000B80BCD2D580BAD20E80B47F201211A4EB
:10126100200B077401B5140040F1121161FF121136
:10127100A40211DED211D20F8095121161FB12115D
:1012810061FA121161F94A4B700679A57A157BFF53
:10129100200B2EE514602A7E008E827583001207D2
:1012A1003E60060EEE651570F0C2D5EBC0E0EAC0F7
:1012B100E0E9C0E0EE121508D0E0F9D0E0FAD0E0A4
:1012C100FB120725FF60AAEBC0E0EAC0E0E9C0E03D
:1012D1001211A4D0E02401F9D0E03400FAD0E0FBEF
:1012E100E5150460DCD515D98087D20B80A21214D4
:1012F100EA60F7E51570010412047DA915600DE59A
:1013010015600914F515121592EF60F3EA30E70242
:10131100F404C3995079EAF425150430E701E40493
:10132100F515800D1214EA60C1EA051525151204A0
:101331007DEA900354F030E701E4251504D5150446
:10134100200E0114121508E4C0E012159290035406
:10135100E0601320E70714F012118C802204F0D012
:10136100E014C0E07F0012118CE5156007121183B3
:101371001515800B300E03121183D0E00211DED05F
:10138100E00480C41214EA609EE5150412047D9005
:101391000354EAF0E515200E02600104240412153D
:0113A1000843
:1013A20074FF04C0E012159212118CE515200E0292
:1013B2006003121183D0E0B515E87F4512119690B3
:1013C2000354E07F2B30E7047F2DF404C0E01211B8
:1013D200A4D0E075F00A84C0F012118DD0E0121191
:1013E2008D0211DE791080027908C20FC2118008C5
:1013F200D2D5790A8004790AC2D5E515047002F5BE
:1014020015E4FAFDFEFF121161FC7B08200A13129B
:101412001161FD7B1030090A121161FE121161FF88
:101422007B20EC3382D592D55013C3E43009069F5A
:10143200FFE49EFEE4200A039DFDE49CFCE4CBF85D
:10144200C20AEC700CCFCECDCCE824F8F870F38051
:1014520017C3EF33FFEE33FEED33FDEC33FCEB331A
:10146200FB994002FB0FD8E9EB300A05F8D0E0C443
:1014720048B20AC0E00AEC4D4E4F78207B0070C2A1
:10148200EAB5150040BCC0E012150AD0F0D0E02049
:101492000A04C4C0E0C4B20AC0F012118DD0F0D563
:1014A200F0EB0211DE120A66127B5313E658124C5D
:1014B2004C12484213EA4F13F24413F249126143A9
:1014C20013F85513254613854512EF4715C55012DB
:1014D200502D12542E12772B12582312752015AE4E
:1014E2002A1210480000126FE515B4FF03751506A5
:1014F200121161FC121161FD121161FE121161FFE4
:1015020090034D0204BA790AA2D5200C14300E09B8
:10151200B910020404B9080104A2D5200F02500137
:1015220004200B68920BB514005034C0E07F2030C9
:101532000C197F30A20B720F720E500F121561C27E
:101542000BC20FC20EC2117F30800F300E03E9C0F2
:10155200E01211A4300E03D0E0F9D0E0B514CC3083
:101562000E177F30B9100C1211A47F58300D077F6F
:10157200788003B908031211A4300B057F2D0211E4
:10158200A47F202011F87F2B200FF322920B80CF13
:101592007F00B40700500B244DF582E43403F58339
:1015A200E0FF22286E756C6C2900D20A121161309C
:1015B2000AF8C20A781430D50108F60212102D502A
:1015C2004349581211612403B405004001E4901507
:1015D200C093121195743A121195D20C751404022B
:0215E20013E60E
:10043300E9D2E7C933E833F892D5EDD2E7CD33EC0F
:0704430033FC5002B2D52288
:10044A00EC30E7100FBF000C0EBE00080DBD000413
:10045A000BEB6014A2D5EB13FCED92E7FD2274FFBF
:10046A00FCFDFEFF22E480F8A2D574FF13FC7D8018
:03047A00E480EF2C
:10047D00F920E73624F950037907E4F42402FBE56B
:10048D0082158270021583DBF6E024FB501BE960B8
:10049D0014E4F0E582158270021583E004F0B40ACD
:0D04AD0008E4F0D9EE7401F00A22C2D52255
:1004BA00ED33EC3392D5FA602AB4FF33EDC2E77B11
:1004CA00FF60067A0479DFE4227A0479E820D50409
:1004DA007A0479E3224E614E002B494E46002D499B
:1004EA004E4600E47A08F0A3DAFC7B00740722C0C7
:1004FA0083C082ECC0E0EDC0E0EEC0E0EFC0E0EA0D
:10050A0075F010A4CAABF075F04DA42BFBE435F0DE
:10051A00FCEA2410FAEB34C5FBEC34D9FCEDC2E753
:10052A00FF75F056A4F42411C5F0F434C58FF0A475
:10053A002AE5F03BE43CF020E7141205EFD0E0FF97
:10054A00D0E0FED0E0FDD0E0FC1202978014F40463
:10055A001205EFD0E0FFD0E0FED0E0FDD0E0FC12C3
:10056A00018ED082D083E0FAEDD2E7CD33EC33248A
:10057A0082FBE4C3CF33CFCE33CECD33CD33DBF3DF
:10058A007B0775F00A846004F0A31B0AE5F0F0A368
:10059A008FF0740AA4FFACF08EF0740AA42CFEAC9F
:1005AA00F050010C8DF0740AA42CFDE435F0F0A390
:0505BA00DBDE740722E6
:1005BF003F8000004120000042C80000447A000044
:1005CF00461C400047C35000497424004B189680C6
:1005DF004CBEBC205A0E1BCA6753C21C749DC5AEBD
:1005EF00FB60065407601C232312061DEB54386072
:1005FF000912060912061812018EECF8EDF9EEFA3F
:10060F00EFCB22EB12061880F1543803241C90050F
:10061F00BFFE93FC0EEE93FD0EEE930ECE93FF22D4
:0300000002269540
:0C269500787FE4F6D8FD7581250226DC74
:10062F00E709F608DFFA8046E709F208DFFA803EAD
:10063F0088828C83E709F0A3DFFA8032E309F6089A
:10064F00DFFA8078E309F208DFFA807088828C8302
:10065F00E309F0A3DFFA806489828A83E0A3F608B6
:10066F00DFFA805889828A83E0A3F208DFFA804C90
:10067F0080D280FA80C680D4806980F28033801067
:10068F0080A680EA809A80A880DA80E280CA8033D0
:10069F0089828A83ECFAE493A3C8C582C8CCC58348
:1006AF00CCF0A3C8C582C8CCC583CCDFE9DEE78018
:1006BF000D89828A83E493A3F608DFF9ECFAA9F097
:1006CF00EDFB2289828A83ECFAE0A3C8C582C8CCED
:1006DF00C583CCF0A3C8C582C8CCC583CCDFEADE06
:1006EF00E880DB89828A83E493A3F208DFF980CC68
:1006FF0088F0EF60010E4E60C388F0ED2402B40461
:10070F000050B9F582EB2402B4040050AF23234507
:06071F00822390067F73A7
:10072500BB010689828A83E0225002E722BBFE02D2
:09073500E32289828A83E4932205
:10073E00BB010CE58229F582E5833AF583E0225070
:10074E0006E92582F8E622BBFE06E92582F8E222BA
:0D075E00E58229F582E5833AF583E49322D4
:10076B00BB010689828A83F0225002F722BBFE016D
:02077B00F32267
:10077D00F8BB010DE58229F582E5833AF583E8F0B2
:10078D00225006E92582C8F622BBFE05E92582C85E
:02079D00F22246
:10079F00EF8DF0A4A8F0CF8CF0A428CE8DF0A42E6E
:0207AF00FE2228
:1007B100BC000BBE0029EF8DF084FFADF022E4CC2C
:1007C100F875F008EF2FFFEE33FEEC33FCEE9DECF5
:1007D100984005FCEE9DFE0FD5F0E9E4CEFD22ED3B
:1007E100F8F5F0EE8420D21CFEADF075F008EF2F85
:1007F100FFED33FD4007985006D5F0F222C398FD76
:050801000FD5F0EA2212
:10080600C2D5EC30E709B2D5E4C39DFDE49CFCEE0D
:1008160030E715B2D5E4C39FFFE49EFE1207B1C3CD
:10082600E49DFDE49CFC80031207B130D507C3E4C8
:060836009FFFE49EFE227C
:10083C00BB010A89828A83E0F5F0A3E02250068787
:10084C00F009E71922BBFE07E3F5F009E319228949
:0B085C00828A83E493F5F0740193227C
:10086700BB0110E58229F582E5833AF583E0F5F0CF
:10087700A3E0225009E92582F886F008E622BBFEAC
:100887000AE92582F8E2F5F008E222E5832AF583F2
:08089700E993F5F0A3E99322B7
:10089F0075F008758200EF2FFFEE33FECD33CDCC10
:1008AF0033CCC58233C5829BED9AEC99E582984093
:1008BF000CF582EE9BFEED9AFDEC99FC0FD5F0D670
:1008CF00E4CEFBE4CDFAE4CCF9A88222B800C1B99A
:1008DF000059BA002DEC8BF084CFCECDFCE5F0CBD8
:1008EF00F97818EF2FFFEE33FEED33FDEC33FCEB11
:1008FF0033FB10D703994004EB99FB0FD8E5E4F9CC
:10090F00FA227818EF2FFFEE33FEED33FDEC33FCB8
:10091F00C933C910D7059BE99A4007EC9BFCE99AAC
:10092F00F90FD8E0E4C9FAE4CCFB2275F010EF2FF1
:10093F00FFEE33FEED33FDCC33CCC833C810D707F1
:10094F009BEC9AE899400AED9BFDEC9AFCE899F82C
:0E095F000FD5F0DAE4CDFBE4CCFAE4C8F922BF
:10004600C2D5E830E70FB2D5E4C39BFBE49AFAE4E5
:1000560099F9E498F8EC30E717B2D512007C12084B
:10006600DBE4C39BFBE49AFAE499F9E498F880038D
:100076001208DB30D50DE4C39FFFE49EFEE49DFD30
:04008600E49CFC22D8
:0E096D00C3E49FFFE49EFEE49DFDE49CFC229B
:10097B00EB9FF5F0EA9E42F0E99D42F0E89C45F0D2
:01098B002249
:10098C00E8600FECC313FCED13FDEE13FEEF13FF49
:03099C00D8F1226D
:10099F00BB010789828A83020A985005E9F8020A87
:1009AF008CBBFE05E9F8020AA489828A83020AB089
:1009BF00BB010789828A83020A095005E9F8020AF6
:0A09CF00F6BBFE05E9F8020B022258
:1009D900BB010DE58229F582E5833AF583020ACD4B
:1009E9005007E92582F8020AC0BBFE07E92582F80B
:1009F900020AD9E58229F582E5833AF583020AE6F6
:0C0A0900ECF0A3EDF0A3EEF0A3EFF02260
:100A1500A8828583F0D083D082120A2C120A2C1268
:100A25000A2C120A2CE473E493A3C583C5F0C5838D
:100A3500C8C582C8F0A3C583C5F0C583C8C582C82B
:010A4500228E
:100A4600F8E0FBA3A3E0F925F0F0E5821582700239
:070A56001583E0FA38F022DD
:090A5D00EBF0A3EAF0A3E9F0229A
:100A6600D083D082F8E4937012740193700DA3A31F
:100A760093F8740193F5828883E473740293686033
:060A8600EFA3A3A380DF33
:1026A100021B2BE493A3F8E493A34003F68001F209
:1026B10008DFF48029E493A3F85407240CC8C3333A
:1026C100C4540F4420C8834004F456800146F6DF09
:1026D100E4800B0102040810204080903467E47EFE
:1026E100019360BCA3FF543F30E509541FFEE493FE
:1026F100A360010ECF54C025E060A840B8E493A3C5
:10270100FAE493A3F8E493A3C8C582C8CAC583CAEF
:10271100F0A3C8C582C8CAC583CADFE9DEE780BEA7
:013488000043
:0C0A8C00E6FC08E6FD08E6FE08E6FF2296
:0C0A9800E0FCA3E0FDA3E0FEA3E0FF22D1
:0C0AA400E2FC08E2FD08E2FE08E2FF228E
:100AB000E493FC740193FD740293FE740393FF228C
:0D0AC000E6FB08E6F908E6FA08E6CBF822A6
:0C0ACD00E0F8A3E0F9A3E0FAA3E0FB22AC
:0D0AD900E2FB08E2F908E2FA08E2CBF8229D
:100AE600E493F8740193F9740293FA740393FB2266
:0C0AF600ECF608EDF608EEF608EFF6222C
:0C0B0200ECF208EDF208EEF208EFF2222F
:00000001FF
